{
  "contractName": "ReservationContract",
  "abi": [
    {
      "constant": true,
      "inputs": [
        {
          "name": "",
          "type": "uint256"
        }
      ],
      "name": "addresses",
      "outputs": [
        {
          "name": "",
          "type": "address"
        }
      ],
      "payable": false,
      "stateMutability": "view",
      "type": "function"
    },
    {
      "inputs": [
        {
          "name": "_id",
          "type": "string"
        },
        {
          "name": "_crsId",
          "type": "string"
        },
        {
          "name": "_sellChannel",
          "type": "string"
        },
        {
          "name": "customerName",
          "type": "string"
        },
        {
          "name": "customerSurname",
          "type": "string"
        },
        {
          "name": "customerEmail",
          "type": "string"
        },
        {
          "name": "customerCountry",
          "type": "string"
        }
      ],
      "payable": false,
      "stateMutability": "nonpayable",
      "type": "constructor"
    },
    {
      "anonymous": false,
      "inputs": [
        {
          "indexed": false,
          "name": "providerEmail",
          "type": "string"
        },
        {
          "indexed": false,
          "name": "reservationId",
          "type": "string"
        }
      ],
      "name": "RegisterProductEvent",
      "type": "event"
    },
    {
      "constant": false,
      "inputs": [
        {
          "name": "_id",
          "type": "uint256"
        },
        {
          "name": "_name",
          "type": "string"
        },
        {
          "name": "_price",
          "type": "uint256"
        },
        {
          "name": "_numAdults",
          "type": "uint256"
        },
        {
          "name": "_numChildren",
          "type": "uint256"
        },
        {
          "name": "_numBabies",
          "type": "uint256"
        },
        {
          "name": "providerId",
          "type": "string"
        },
        {
          "name": "providerName",
          "type": "string"
        },
        {
          "name": "providerEmail",
          "type": "string"
        }
      ],
      "name": "registerProduct",
      "outputs": [],
      "payable": false,
      "stateMutability": "nonpayable",
      "type": "function"
    },
    {
      "constant": false,
      "inputs": [],
      "name": "getReservation",
      "outputs": [
        {
          "name": "",
          "type": "bytes"
        },
        {
          "name": "",
          "type": "bytes"
        }
      ],
      "payable": false,
      "stateMutability": "nonpayable",
      "type": "function"
    },
    {
      "constant": false,
      "inputs": [
        {
          "name": "productId",
          "type": "uint256"
        }
      ],
      "name": "validateReservation",
      "outputs": [
        {
          "name": "validated",
          "type": "bool"
        }
      ],
      "payable": false,
      "stateMutability": "nonpayable",
      "type": "function"
    },
    {
      "constant": false,
      "inputs": [],
      "name": "validateAllReservations",
      "outputs": [
        {
          "name": "validated",
          "type": "bool"
        }
      ],
      "payable": false,
      "stateMutability": "nonpayable",
      "type": "function"
    },
    {
      "constant": false,
      "inputs": [
        {
          "name": "_crs",
          "type": "string"
        }
      ],
      "name": "setCrs",
      "outputs": [],
      "payable": false,
      "stateMutability": "nonpayable",
      "type": "function"
    },
    {
      "constant": false,
      "inputs": [],
      "name": "getCrs",
      "outputs": [
        {
          "name": "",
          "type": "string"
        }
      ],
      "payable": false,
      "stateMutability": "nonpayable",
      "type": "function"
    },
    {
      "constant": false,
      "inputs": [
        {
          "name": "_t",
          "type": "uint256"
        }
      ],
      "name": "settotalPrice",
      "outputs": [],
      "payable": false,
      "stateMutability": "nonpayable",
      "type": "function"
    },
    {
      "constant": false,
      "inputs": [],
      "name": "gettotalPrice",
      "outputs": [
        {
          "name": "",
          "type": "uint256"
        }
      ],
      "payable": false,
      "stateMutability": "nonpayable",
      "type": "function"
    },
    {
      "constant": false,
      "inputs": [
        {
          "name": "_crs",
          "type": "string"
        },
        {
          "name": "_t",
          "type": "uint256"
        }
      ],
      "name": "setMultiple",
      "outputs": [],
      "payable": false,
      "stateMutability": "nonpayable",
      "type": "function"
    },
    {
      "constant": false,
      "inputs": [],
      "name": "getMultiple",
      "outputs": [
        {
          "name": "",
          "type": "string"
        },
        {
          "name": "",
          "type": "uint256"
        }
      ],
      "payable": false,
      "stateMutability": "nonpayable",
      "type": "function"
    },
    {
      "constant": true,
      "inputs": [],
      "name": "getProductsCount",
      "outputs": [
        {
          "name": "",
          "type": "uint256"
        }
      ],
      "payable": false,
      "stateMutability": "view",
      "type": "function"
    }
  ],
  "bytecode": "0x60806040523480156200001157600080fd5b506040516200289338038062002893833981018060405281019080805182019291906020018051820192919060200180518201929190602001805182019291906020018051820192919060200180518201929190602001805182019291905050506000600b81905550336000806101000a81548173ffffffffffffffffffffffffffffffffffffffff021916908373ffffffffffffffffffffffffffffffffffffffff1602179055508660019080519060200190620000d292919062000227565b508560029080519060200190620000eb92919062000227565b5084600390805190602001906200010492919062000227565b50608060405190810160405280858152602001848152602001838152602001828152506006600082015181600001908051906020019062000147929190620002ae565b50602082015181600101908051906020019062000166929190620002ae565b50604082015181600201908051906020019062000185929190620002ae565b506060820151816003019080519060200190620001a4929190620002ae565b50905050600060058190555033600a600080815260200190815260200160002060006101000a81548173ffffffffffffffffffffffffffffffffffffffff021916908373ffffffffffffffffffffffffffffffffffffffff1602179055506001600c60006005811015156200021557fe5b0181905550505050505050506200035d565b828054600181600116156101000203166002900490600052602060002090601f016020900481019282601f106200026a57805160ff19168380011785556200029b565b828001600101855582156200029b579182015b828111156200029a5782518255916020019190600101906200027d565b5b509050620002aa919062000335565b5090565b828054600181600116156101000203166002900490600052602060002090601f016020900481019282601f10620002f157805160ff191683800117855562000322565b8280016001018555821562000322579182015b828111156200032157825182559160200191906001019062000304565b5b50905062000331919062000335565b5090565b6200035a91905b80821115620003565760008160009055506001016200033c565b5090565b90565b612526806200036d6000396000f3006080604052600436106100ba576000357c0100000000000000000000000000000000000000000000000000000000900463ffffffff16806307c4d9ec146100bf5780630f5088e01461022c5780631b10fbfd14610259578063491a5c57146102e95780635786fd401461035c578063632658af146103875780637b212aa7146103f0578063c9e085331461041b578063da066bf914610460578063e8c6a4d7146104f7578063edf26d9b146105f3578063f7121b7214610660575b600080fd5b3480156100cb57600080fd5b5061022a60048036038101908080359060200190929190803590602001908201803590602001908080601f016020809104026020016040519081016040528093929190818152602001838380828437820191505050505050919291929080359060200190929190803590602001909291908035906020019092919080359060200190929190803590602001908201803590602001908080601f0160208091040260200160405190810160405280939291908181526020018383808284378201915050505050509192919290803590602001908201803590602001908080601f0160208091040260200160405190810160405280939291908181526020018383808284378201915050505050509192919290803590602001908201803590602001908080601f016020809104026020016040519081016040528093929190818152602001838380828437820191505050505050919291929050505061068f565b005b34801561023857600080fd5b506102576004803603810190808035906020019092919050505061095d565b005b34801561026557600080fd5b5061026e610a5a565b6040518080602001828103825283818151815260200191508051906020019080838360005b838110156102ae578082015181840152602081019050610293565b50505050905090810190601f1680156102db5780820380516001836020036101000a031916815260200191505b509250505060405180910390f35b3480156102f557600080fd5b5061035a600480360381019080803590602001908201803590602001908080601f016020809104026020016040519081016040528093929190818152602001838380828437820191505050505050919291929080359060200190929190505050610afc565b005b34801561036857600080fd5b50610371610c11565b6040518082815260200191505060405180910390f35b34801561039357600080fd5b506103ee600480360381019080803590602001908201803590602001908080601f0160208091040260200160405190810160405280939291908181526020018383808284378201915050505050509192919290505050610c1e565b005b3480156103fc57600080fd5b50610405610d2b565b6040518082815260200191505060405180910390f35b34801561042757600080fd5b5061044660048036038101908080359060200190929190505050610d35565b604051808215151515815260200191505060405180910390f35b34801561046c57600080fd5b50610475610f2f565b6040518080602001838152602001828103825284818151815260200191508051906020019080838360005b838110156104bb5780820151818401526020810190506104a0565b50505050905090810190601f1680156104e85780820380516001836020036101000a031916815260200191505b50935050505060405180910390f35b34801561050357600080fd5b5061050c610fdc565b604051808060200180602001838103835285818151815260200191508051906020019080838360005b83811015610550578082015181840152602081019050610535565b50505050905090810190601f16801561057d5780820380516001836020036101000a031916815260200191505b50838103825284818151815260200191508051906020019080838360005b838110156105b657808201518184015260208101905061059b565b50505050905090810190601f1680156105e35780820380516001836020036101000a031916815260200191505b5094505050505060405180910390f35b3480156105ff57600080fd5b5061061e60048036038101908080359060200190929190505050611002565b604051808273ffffffffffffffffffffffffffffffffffffffff1673ffffffffffffffffffffffffffffffffffffffff16815260200191505060405180910390f35b34801561066c57600080fd5b50610675611035565b604051808215151515815260200191505060405180910390f35b6004610100604051908101604052808b81526020018a8152602001898152602001888152602001878152602001868152602001606060405190810160405280878152602001868152602001858152508152602001600015158152509080600181540180825580915050906001820390600052602060002090600a02016000909192909190915060008201518160000155602082015181600101908051906020019061073b9291906123d5565b5060408201518160020155606082015181600301556080820151816004015560a0820151816005015560c08201518160060160008201518160000190805190602001906107899291906123d5565b5060208201518160010190805190602001906107a69291906123d5565b5060408201518160020190805190602001906107c39291906123d5565b50505060e08201518160090160006101000a81548160ff021916908315150217905550505050600b600081548092919060010191905055506002600c600060058110151561080d57fe5b0160008282540192505081905550866005600082825401925050819055507f90d836784c927b3a569e16e67b5c2008509d8955d351606c159d8b84f0bbfdd3816001604051808060200180602001838103835285818151815260200191508051906020019080838360005b83811015610893578082015181840152602081019050610878565b50505050905090810190601f1680156108c05780820380516001836020036101000a031916815260200191505b508381038252848181546001816001161561010002031660029004815260200191508054600181600116156101000203166002900480156109425780601f1061091757610100808354040283529160200191610942565b820191906000526020600020905b81548152906001019060200180831161092557829003601f168201915b505094505050505060405180910390a1505050505050505050565b806005819055507f90d836784c927b3a569e16e67b5c2008509d8955d351606c159d8b84f0bbfdd360016040518080602001806020018381038352600f8152602001807f6d79656d61696c406161612e636f6d0000000000000000000000000000000000815250602001838103825284818154600181600116156101000203166002900481526020019150805460018160011615610100020316600290048015610a485780601f10610a1d57610100808354040283529160200191610a48565b820191906000526020600020905b815481529060010190602001808311610a2b57829003601f168201915b5050935050505060405180910390a150565b606060028054600181600116156101000203166002900480601f016020809104026020016040519081016040528092919081815260200182805460018160011615610100020316600290048015610af25780601f10610ac757610100808354040283529160200191610af2565b820191906000526020600020905b815481529060010190602001808311610ad557829003601f168201915b5050505050905090565b8160029080519060200190610b12929190612455565b50806005819055507f90d836784c927b3a569e16e67b5c2008509d8955d351606c159d8b84f0bbfdd360016040518080602001806020018381038352600f8152602001807f6d79656d61696c406161612e636f6d0000000000000000000000000000000000815250602001838103825284818154600181600116156101000203166002900481526020019150805460018160011615610100020316600290048015610bfe5780601f10610bd357610100808354040283529160200191610bfe565b820191906000526020600020905b815481529060010190602001808311610be157829003601f168201915b5050935050505060405180910390a15050565b6000600480549050905090565b8060029080519060200190610c34929190612455565b507f90d836784c927b3a569e16e67b5c2008509d8955d351606c159d8b84f0bbfdd360016040518080602001806020018381038352600f8152602001807f6d79656d61696c406161612e636f6d0000000000000000000000000000000000815250602001838103825284818154600181600116156101000203166002900481526020019150805460018160011615610100020316600290048015610d195780601f10610cee57610100808354040283529160200191610d19565b820191906000526020600020905b815481529060010190602001808311610cfc57829003601f168201915b5050935050505060405180910390a150565b6000600554905090565b6000803373ffffffffffffffffffffffffffffffffffffffff166000809054906101000a900473ffffffffffffffffffffffffffffffffffffffff1673ffffffffffffffffffffffffffffffffffffffff1614151515610dfd576040517f08c379a00000000000000000000000000000000000000000000000000000000081526004018080602001828103825260138152602001807f6d75737420626520616e2070726f76696465720000000000000000000000000081525060200191505060405180910390fd5b60009150600090505b600480549050811015610f295782600482815481101515610e2357fe5b90600052602060002090600a0201600001541415610f1c57600481815481101515610e4a57fe5b90600052602060002090600a020160090160009054906101000a900460ff16151515610ede576040517f08c379a000000000000000000000000000000000000000000000000000000000815260040180806020018281038252601d8152602001807f7265736572766174696f6e20616c72656164792076616c69646174656400000081525060200191505060405180910390fd5b6001600482815481101515610eef57fe5b90600052602060002090600a020160090160006101000a81548160ff021916908315150217905550600191505b8080600101915050610e06565b50919050565b606060006002600554818054600181600116156101000203166002900480601f016020809104026020016040519081016040528092919081815260200182805460018160011615610100020316600290048015610fcd5780601f10610fa257610100808354040283529160200191610fcd565b820191906000526020600020905b815481529060010190602001808311610fb057829003601f168201915b50505050509150915091509091565b606080606080610fea611196565b9150610ff4611faf565b905081819350935050509091565b600a6020528060005260406000206000915054906101000a900473ffffffffffffffffffffffffffffffffffffffff1681565b6000803373ffffffffffffffffffffffffffffffffffffffff166000809054906101000a900473ffffffffffffffffffffffffffffffffffffffff1673ffffffffffffffffffffffffffffffffffffffff16141515156110fd576040517f08c379a00000000000000000000000000000000000000000000000000000000081526004018080602001828103825260138152602001807f6d75737420626520616e2070726f76696465720000000000000000000000000081525060200191505060405180910390fd5b60009150600090505b6004805490508110156111925760048181548110151561112257fe5b90600052602060002090600a020160090160009054906101000a900460ff16151561118557600160048281548110151561115857fe5b90600052602060002090600a020160090160006101000a81548160ff021916908315150217905550600191505b8080600101915050611106565b5090565b6060600080606060006020935061124960066003018054600181600116156101000203166002900480601f01602080910402602001604051908101604052809291908181526020018280546001816001161561010002031660029004801561123f5780601f106112145761010080835404028352916020019161123f565b820191906000526020600020905b81548152906001019060200180831161122257829003601f168201915b5050505050612303565b6112ef60066002018054600181600116156101000203166002900480601f0160208091040260200160405190810160405280929190818152602001828054600181600116156101000203166002900480156112e55780601f106112ba576101008083540402835291602001916112e5565b820191906000526020600020905b8154815290600101906020018083116112c857829003601f168201915b5050505050612303565b61139560066001018054600181600116156101000203166002900480601f01602080910402602001604051908101604052809291908181526020018280546001816001161561010002031660029004801561138b5780601f106113605761010080835404028352916020019161138b565b820191906000526020600020905b81548152906001019060200180831161136e57829003601f168201915b5050505050612303565b61143b60066000018054600181600116156101000203166002900480601f0160208091040260200160405190810160405280929190818152602001828054600181600116156101000203166002900480156114315780601f1061140657610100808354040283529160200191611431565b820191906000526020600020905b81548152906001019060200180831161141457829003601f168201915b5050505050612303565b6114de60038054600181600116156101000203166002900480601f0160208091040260200160405190810160405280929190818152602001828054600181600116156101000203166002900480156114d45780601f106114a9576101008083540402835291602001916114d4565b820191906000526020600020905b8154815290600101906020018083116114b757829003601f168201915b5050505050612303565b61158160028054600181600116156101000203166002900480601f0160208091040260200160405190810160405280929190818152602001828054600181600116156101000203166002900480156115775780601f1061154c57610100808354040283529160200191611577565b820191906000526020600020905b81548152906001019060200180831161155a57829003601f168201915b5050505050612303565b61162460018054600181600116156101000203166002900480601f01602080910402602001604051908101604052809291908181526020018280546001816001161561010002031660029004801561161a5780601f106115ef5761010080835404028352916020019161161a565b820191906000526020600020905b8154815290600101906020018083116115fd57829003601f168201915b5050505050612303565b8a010101010101019250826040519080825280601f01601f1916602001820160405280156116615781602001602082028038833980820191505090505b5091508290506116748160055484612348565b838103905061171e8160018054600181600116156101000203166002900480601f0160208091040260200160405190810160405280929190818152602001828054600181600116156101000203166002900480156117135780601f106116e857610100808354040283529160200191611713565b820191906000526020600020905b8154815290600101906020018083116116f657829003601f168201915b505050505084612352565b6117c160018054600181600116156101000203166002900480601f0160208091040260200160405190810160405280929190818152602001828054600181600116156101000203166002900480156117b75780601f1061178c576101008083540402835291602001916117b7565b820191906000526020600020905b81548152906001019060200180831161179a57829003601f168201915b5050505050612303565b8103905061186a8160028054600181600116156101000203166002900480601f01602080910402602001604051908101604052809291908181526020018280546001816001161561010002031660029004801561185f5780601f106118345761010080835404028352916020019161185f565b820191906000526020600020905b81548152906001019060200180831161184257829003601f168201915b505050505084612352565b61190d60028054600181600116156101000203166002900480601f0160208091040260200160405190810160405280929190818152602001828054600181600116156101000203166002900480156119035780601f106118d857610100808354040283529160200191611903565b820191906000526020600020905b8154815290600101906020018083116118e657829003601f168201915b5050505050612303565b810390506119b68160038054600181600116156101000203166002900480601f0160208091040260200160405190810160405280929190818152602001828054600181600116156101000203166002900480156119ab5780601f10611980576101008083540402835291602001916119ab565b820191906000526020600020905b81548152906001019060200180831161198e57829003601f168201915b505050505084612352565b611a5960038054600181600116156101000203166002900480601f016020809104026020016040519081016040528092919081815260200182805460018160011615610100020316600290048015611a4f5780601f10611a2457610100808354040283529160200191611a4f565b820191906000526020600020905b815481529060010190602001808311611a3257829003601f168201915b5050505050612303565b81039050611b058160066000018054600181600116156101000203166002900480601f016020809104026020016040519081016040528092919081815260200182805460018160011615610100020316600290048015611afa5780601f10611acf57610100808354040283529160200191611afa565b820191906000526020600020905b815481529060010190602001808311611add57829003601f168201915b505050505084612352565b611bab60066000018054600181600116156101000203166002900480601f016020809104026020016040519081016040528092919081815260200182805460018160011615610100020316600290048015611ba15780601f10611b7657610100808354040283529160200191611ba1565b820191906000526020600020905b815481529060010190602001808311611b8457829003601f168201915b5050505050612303565b81039050611c578160066001018054600181600116156101000203166002900480601f016020809104026020016040519081016040528092919081815260200182805460018160011615610100020316600290048015611c4c5780601f10611c2157610100808354040283529160200191611c4c565b820191906000526020600020905b815481529060010190602001808311611c2f57829003601f168201915b505050505084612352565b611cfd60066001018054600181600116156101000203166002900480601f016020809104026020016040519081016040528092919081815260200182805460018160011615610100020316600290048015611cf35780601f10611cc857610100808354040283529160200191611cf3565b820191906000526020600020905b815481529060010190602001808311611cd657829003601f168201915b5050505050612303565b81039050611da98160066002018054600181600116156101000203166002900480601f016020809104026020016040519081016040528092919081815260200182805460018160011615610100020316600290048015611d9e5780601f10611d7357610100808354040283529160200191611d9e565b820191906000526020600020905b815481529060010190602001808311611d8157829003601f168201915b505050505084612352565b611e4f60066002018054600181600116156101000203166002900480601f016020809104026020016040519081016040528092919081815260200182805460018160011615610100020316600290048015611e455780601f10611e1a57610100808354040283529160200191611e45565b820191906000526020600020905b815481529060010190602001808311611e2857829003601f168201915b5050505050612303565b81039050611efb8160066003018054600181600116156101000203166002900480601f016020809104026020016040519081016040528092919081815260200182805460018160011615610100020316600290048015611ef05780601f10611ec557610100808354040283529160200191611ef0565b820191906000526020600020905b815481529060010190602001808311611ed357829003601f168201915b505050505084612352565b611fa160066003018054600181600116156101000203166002900480601f016020809104026020016040519081016040528092919081815260200182805460018160011615610100020316600290048015611f975780601f10611f6c57610100808354040283529160200191611f97565b820191906000526020600020905b815481529060010190602001808311611f7a57829003601f168201915b5050505050612303565b810390508194505050505090565b6060600080600080600080606060006001975060209650600195506005945060049350604084028786028988020101600480549050029250826040519080825280601f01601f19166020018201604052801561201a5781602001602082028038833980820191505090505b509150600090505b600160048054905003811115156122f55761206b8360048381548110151561204657fe5b90600052602060002090600a020160090160009054906101000a900460ff16846123b1565b878303925061209b8360048381548110151561208357fe5b90600052602060002090600a02016000015484612348565b86830392506120cb836004838154811015156120b357fe5b90600052602060002090600a02016002015484612348565b86830392506120fb836004838154811015156120e357fe5b90600052602060002090600a02016003015484612348565b868303925061212b8360048381548110151561211357fe5b90600052602060002090600a02016004015484612348565b868303925061215b8360048381548110151561214357fe5b90600052602060002090600a02016005015484612348565b86830392506122238360048381548110151561217357fe5b90600052602060002090600a02016001018054600181600116156101000203166002900480601f0160208091040260200160405190810160405280929190818152602001828054600181600116156101000203166002900480156122185780601f106121ed57610100808354040283529160200191612218565b820191906000526020600020905b8154815290600101906020018083116121fb57829003601f168201915b505050505084612352565b6122e460048281548110151561223557fe5b90600052602060002090600a02016001018054600181600116156101000203166002900480601f0160208091040260200160405190810160405280929190818152602001828054600181600116156101000203166002900480156122da5780601f106122af576101008083540402835291602001916122da565b820191906000526020600020905b8154815290600101906020018083116122bd57829003601f168201915b5050505050612303565b830392508080600101915050612022565b819850505050505050505090565b60006020825181151561231257fe5b04905060006020835181151561232457fe5b061415156123355780806001019150505b8080600101915050602081029050919050565b8183820152505050565b60006020835181151561236157fe5b04905060006020845181151561237357fe5b0611156123835780806001019150505b60006001820191505b602081028401518584015260208503945060018101905081811061238c575050505050565b6000801515831515146123c55760016123c8565b60005b9050808483015250505050565b828054600181600116156101000203166002900490600052602060002090601f016020900481019282601f1061241657805160ff1916838001178555612444565b82800160010185558215612444579182015b82811115612443578251825591602001919060010190612428565b5b50905061245191906124d5565b5090565b828054600181600116156101000203166002900490600052602060002090601f016020900481019282601f1061249657805160ff19168380011785556124c4565b828001600101855582156124c4579182015b828111156124c35782518255916020019190600101906124a8565b5b5090506124d191906124d5565b5090565b6124f791905b808211156124f35760008160009055506001016124db565b5090565b905600a165627a7a723058200ceaa9efe16181c1818184c6d7606d1bb969660ee06b32876a4b419d0d3edf480029",
  "source": "pragma solidity ^0.4.18;\n\ncontract Seriality {\n\n    // constructor\n    function Seriality() public {}\n\n    function sizeOfString(string _in) internal pure  returns(uint _size){\n        _size = bytes(_in).length / 32;\n        if (bytes(_in).length % 32 != 0) \n            _size++;\n            \n        _size++; // first 32 bytes is reserved for the size of the string     \n        _size *= 32;\n    }\n\n    function boolToBytes(uint _offst, bool _input, bytes memory _output) internal pure {\n        uint8 x = _input == false ? 0 : 1;\n        assembly {\n            mstore(add(_output, _offst), x)\n        }\n    }\n    \n    function stringToBytes(uint _offst, bytes memory _input, bytes memory _output) internal {\n        uint256 stack_size = _input.length / 32;\n        if(_input.length % 32 > 0) stack_size++;\n        \n        assembly {\n            let index := 0\n            stack_size := add(stack_size,1)//adding because of 32 first bytes memory as the length\n        loop:\n            \n            mstore(add(_output, _offst), mload(add(_input,mul(index,32))))\n            _offst := sub(_offst , 32)\n            index := add(index ,1)\n            jumpi(loop , lt(index,stack_size))\n        }\n    }\n    \n    function uintToBytes(uint _offst, uint _input, bytes memory _output) internal pure {\n        assembly {\n            mstore(add(_output, _offst), _input)\n        }\n    }  \n}\n\ncontract ReservationContract is Seriality {\n\n    /*\n    * Events\n    */\n    \n    event RegisterProductEvent(\n      string providerEmail,\n      string reservationId\n    );\n\n    /*\n    * Storage\n    */\n\n    address owner;\n\n    string id;\n    string crsId;\n    string sellChannel;\n    Product[] products;\n    uint totalPrice;\n    Customer customer;\n\n    mapping(uint => address) public addresses;\n    uint idx;\n\n    uint[5] arraytest;\n  \n    struct Customer {\n        string name;\n        string surname;\n        string email;\n        string country;\n    }\n\n    struct Product {\n        uint id; // linea de reserva\n        //  string productId;\n        string name;\n        uint price;\n        uint numAdults;\n        uint numChildren;\n        uint numBabies;\n        Provider provider;\n        bool isValidated;\n    }\n  \n    struct Provider {\n        string id;\n        string name;\n        string email;\n    }\n\n    /**\n    * @dev Contract constructor\n    */\n    // constructor (\n    function ReservationContract(\n        string _id, \n        string _crsId, \n        string _sellChannel, \n        string customerName,\n        string customerSurname,\n        string customerEmail,\n        string customerCountry\n    ) public {\n        idx = 0;\n\n        owner = msg.sender;\n\n        id = _id;\n        crsId = _crsId;\n        sellChannel = _sellChannel;\n\n        customer = Customer({\n            name: customerName,\n            surname: customerSurname,\n            email: customerEmail,\n            country: customerCountry\n        });\n\n        totalPrice = 0;\n\n        addresses[0] = msg.sender;\n\n        // arraytest.push(uint(1));\n        arraytest[0] = 1;\n    }\n\n    /*\n     * Public functions\n     */\n\n    /**\n     * @dev Register Product in a reservation\n     */\n    function registerProduct(\n        uint _id,\n        string _name,\n        uint _price,\n        uint _numAdults,\n        uint _numChildren,\n        uint _numBabies,\n        string providerId,\n        string providerName,\n        string providerEmail\n    ) public {\n        products.push(Product({\n            id: _id,\n            name: _name,\n            price: _price,\n            numAdults: _numAdults,\n            numChildren: _numChildren,\n            numBabies: _numBabies,\n            provider: Provider({\n                id: providerId,\n                name: providerName,\n                email: providerEmail\n            }),\n            isValidated: false\n        }));\n\n        // Provider storage prov;\n        // prov.id = providerId;\n        // prov.name = providerName;\n        // prov.email = providerEmail;\n\n        // Product storage p;\n        // p.id = _id;\n        // p.name = _name;\n        // p.price = _price;\n        // p.numAdults = _numAdults;\n        // p.numChildren = _numChildren;\n        // p.numBabies = _numBabies;\n        // p.provider = prov;\n\n        // products.push(p);\n\n        // addresses[idx] = msg.sender;\n        idx++;\n        // arrofint.push(uint(1));\n\n        // arraytest.push(uint(2));\n        arraytest[0] += 2;\n\n        totalPrice += _price;\n\n        RegisterProductEvent(providerEmail, id);\n    }\n\n    /**\n     * @dev Get reservation info\n     */\n    function getReservation() public returns (bytes, bytes) {\n        bytes memory reservationSerialized = serializeReservation();\n        bytes memory productsSerialized = serializeProducts();\n\n        return (reservationSerialized, productsSerialized);\n    }\n  \n    /**\n     * @dev Validate Reservation\n     * @param productId uint productId\n     */\n    function validateReservation(uint productId) public returns (bool validated) {\n        require(owner != msg.sender, \"must be an provider\");\n\n        validated = false;\n        for (uint i = 0; i < products.length; i++) {\n                if (products[i].id == productId) {\n                    require(! products[i].isValidated, \"reservation already validated\");\n\n                    products[i].isValidated = true;\n\n                    validated = true;\n                }\n        }\n    }\n\n    function validateAllReservations() public returns (bool validated) {\n        require(owner != msg.sender, \"must be an provider\");\n\n        validated = false;\n        for (uint i = 0; i < products.length; i++) {\n                if (! products[i].isValidated) {\n                    products[i].isValidated = true;\n\n                    validated = true;\n                }\n        }\n    }\n\n    function setCrs(string _crs) public {\n        crsId = _crs;\n\n        RegisterProductEvent(\"myemail@aaa.com\", id);\n\n    }\n\n    function getCrs() public returns (string) {\n        return crsId;\n    }\n\n    function settotalPrice(uint _t) public {\n        totalPrice = _t;        \n\n        RegisterProductEvent(\"myemail@aaa.com\", id);\n    }\n\n    function gettotalPrice() public returns (uint) {\n        return totalPrice;\n    }\n\n    function setMultiple(string _crs, uint _t) public {\n        crsId = _crs;\n        totalPrice = _t;        \n\n        RegisterProductEvent(\"myemail@aaa.com\", id);\n    }\n\n    function getMultiple() public returns (string, uint) {\n        return (crsId, totalPrice);\n    }\n\n    /**\n     * @dev Get number of products\n     */\n    function getProductsCount() public view returns (uint) {\n        return products.length;\n    }\n\n    /*\n     * Helper functions\n     */\n\n    function serializeReservation() private returns (bytes) {\n        uint sizeOfUint256 = 32;\n\n        uint buffer_size = sizeOfUint256 +\n            sizeOfString(id) +\n            sizeOfString(crsId) +\n            sizeOfString(sellChannel) + \n            sizeOfString(customer.name) +\n            sizeOfString(customer.surname) +\n            sizeOfString(customer.email) +\n            sizeOfString(customer.country);\n\n        bytes memory buffer = new bytes(buffer_size);\n\n        uint offset = buffer_size;\n\n        // serialize totalPrice\n        uintToBytes(offset, totalPrice, buffer);\n        offset -= sizeOfUint256;\n\n        stringToBytes(offset, bytes(id), buffer);\n        offset -= sizeOfString(id);\n\n        stringToBytes(offset, bytes(crsId), buffer);\n        offset -= sizeOfString(crsId);\n\n        stringToBytes(offset, bytes(sellChannel), buffer);\n        offset -= sizeOfString(sellChannel);\n\n        stringToBytes(offset, bytes(customer.name), buffer);\n        offset -= sizeOfString(customer.name);\n\n        stringToBytes(offset, bytes(customer.surname), buffer);\n        offset -= sizeOfString(customer.surname);\n\n        stringToBytes(offset, bytes(customer.email), buffer);\n        offset -= sizeOfString(customer.email);\n\n        stringToBytes(offset, bytes(customer.country), buffer);\n        offset -= sizeOfString(customer.country);\n\n        return buffer;\n    }\n\n    function serializeProducts() private returns (bytes) {\n        uint sizeOfBool = 1;\n        uint sizeOfUint256 = 32;\n        uint numBoolFields = 1;\n        uint numUintFields = 5;\n        uint numStringFields = 4;\n\n        uint offset = products.length * (\n            numBoolFields * sizeOfBool +\n            numUintFields * sizeOfUint256 +\n            numStringFields * 64\n        );\n\n        bytes memory buffer = new  bytes(offset);\n\n        for(uint i = 0; i <= products.length - 1; i++) {\n            // serialize isValidated\n            boolToBytes(offset, products[i].isValidated, buffer);\n            offset -= sizeOfBool;\n\n            // serialize id\n            uintToBytes(offset, products[i].id, buffer);\n            offset -= sizeOfUint256;\n\n            // serialize price\n            uintToBytes(offset, products[i].price, buffer);\n            offset -= sizeOfUint256;\n\n            // serialize numAdults\n            uintToBytes(offset, products[i].numAdults, buffer);\n            offset -= sizeOfUint256;\n\n            // serialize numChildren\n            uintToBytes(offset, products[i].numChildren, buffer);\n            offset -= sizeOfUint256;\n\n            // serialize numBabies\n            uintToBytes(offset, products[i].numBabies, buffer);\n            offset -= sizeOfUint256;\n\n            // serialize name\n            stringToBytes(offset, bytes(products[i].name), buffer);\n            offset -= sizeOfString(products[i].name);\n\n            // serialize providerId\n            // stringToBytes(offset, bytes(products[i].provider.id), buffer);\n            // offset -= sizeOfString(products[i].provider.id);\n\n            // serialize providerName\n            // stringToBytes(offset, bytes(products[i].provider.name), buffer);\n            // offset -= sizeOfString(products[i].provider.name);\n\n            // serialize providerEmail\n            // stringToBytes(offset, bytes(products[i].provider.email), buffer);\n            // offset -= sizeOfString(products[i].provider.email);\n        }\n\n        return buffer;\n    }\n\n}\n",
  "sourcePath": "/data/home/bcuesta/ALASTRIA_OPENCALL2018/eventnotificationservice/contracts/ReservationContract.sol",
  "compiler": {
    "name": "solc",
    "version": "0.4.24+commit.e67f0147.Emscripten.clang"
  },
  "schemaVersion": "2.0.1",
  "updatedAt": "2018-11-13T14:30:51.673Z"
}